:020000040800F2
:10000000C0A90220F9491108594411085B4411089C
:100010005D4411085F4411086144110800000000AC
:1000200000000000000000000000000079860D08BC
:1000300063441108000000001D860D086544110886
:10004000314A1108354A1108394A11083D4A110848
:10005000414A1108454A1108494A11084D4A1108F8
:10006000514A1108554A1108594A11085D4A1108A8
:10007000614A1108654A1108694A11086D4A110858
:10008000714A1108754A1108794A11087D4A110808
:10009000814A1108854A1108894A11088D4A1108B8
:1000A000914A1108954A1108994A11089D4A110868
:1000B000A14A1108A54A1108A94A1108AD4A110818
:1000C000B14A1108B54A1108B94A1108BD4A1108C8
:1000D000C14A1108C54A1108C94A1108CD4A110878
:1000E000D14A1108D54A1108D94A1108DD4A110828
:1000F000E14A1108E54A1108E94A1108ED4A1108D8
:10010000F14A1108F54A1108F94A1108FD4A110887
:10011000014B1108054B1108094B11080D4B110833
:10012000114B1108154B1108194B11081D4B1108E3
:10013000214B1108254B1108294B11082D4B110893
:10014000314B1108354B1108394B11083D4B110843
:10015000414B1108454B1108494B11084D4B1108F3
:10016000514B1108554B1108594B11085D4B1108A3
:10017000614B11087D441108654B11080000000017
:10018000694B11086D4B1108714B1108754B110823
:10019000794B11087D4B1108814B1108854B1108D3
:1001A00083441108894B11088D4B11084B65726E01
:1001B000656C204C6F67000050726F63657373202D
:1001C0005669657765720000435055205573616725
:1001D0006500000043616E63656C00000000000074
:1001E00048696465000000004D756C746965646958
:1001F0007400000050726F636573732076696577D1
:10020000657200004C6973747669657700000000C0
:100210005D5B54005C5C56004E504C004648450007
:100220004244410041423E0043423D00423E3800CC
:1002300048463E0047443F004C4B470044433F0084
:100240003F3E3A0044433F00454440003C3B3700BA
:100250004D4C48004E4D49003B3A3500413E3A0076
:10026000504E490051524E0047484700353938003A
:10027000353D3A003F464200454C47003F453F0070
:100280003F433B0052514600666253006A65590085
:1002900067645B003F3D390030302E003030300065
:1002A0003C3D3D004A4E4C004C504E0047484900F2
:1002B0004141430036353800393C3D003D42410064
:1002C000454A48004A504C00484C4800525550009E
:1002D00042433E004848430057565100605F5A0071
:1002E000595952004E4E470051504A005656500040
:1002F000504E48004C4B450043423C004C4B45009F
:1003000053524D00504F4A004C4B46004948430061
:100310003837320042413C00403E3A0043423D0003
:100320004C4B460051504B00504E4A00484743004A
:100330003C3B370033322E00302F2B003736330052
:100340003F3E3C003F3E3C003937370038363700EF
:100350003C3C3D0042424200474747004343430084
:10036000373735002F2F2C003839340041423D00FB
:100370003E3F3900454640004E4E48004F4E490032
:1003800047464200444340004C4C4900484946001F
:100390003A3C39003C403E00333938003B3F3E0098
:1003A00050514D0063615A006B675E00615B540001
:1003B000534A45003E36310059514E0066615E0099
:1003C0005B5854004443400031323000393D3C001A
:1003D000404341004E4E4B004B4945004C494400C0
:1003E0004C4A4500464641003E403C003A3C3B00FA
:1003F0004F524F005251490056544C004947420059
:1004000035353100292B2A002628290025252600EC
:100410002C2B2C00474342004E4B470044443C00E9
:1004200040423700484A3F004C4E43003B3D3100BC
:100430004C4C4000555548005B5A4D0063625400D7
:100440006A685C0067645A0057544B0048453C009A
:10045000413E35002F2C26003A3731004B484200F0
:1004600055524D0056534E00504D470047453C00F5
:100470004B4A3C005E5C4E00615F52005E5C500087
:100480004B493D0039372C00403D34003B372E00AE
:100490004A483E005A594F005D5C52005B5B510078
:1004A000515148004C4C44005A5A54005756510080
:1004B00042413D004B4A4600464541004B4C4600F8
:1004C0005758500060625700626459004C4E450016
:1004D00045463E0042433D0040413C004748430002
:1004E0004A4A46004C4E47005F60570066665D0012
:1004F00051514A00494843003A39360031302E0004
:10050000383733004747400054544B00626257006D
:1005100069685C0059574B00504E42004F4D4200F5
:1005200056544A0056534B00413E37003D3A340082
:10053000413E39005956510066635C00625F5600C7
:100540005552490045423A0038352D0035322A00CF
:100550004B483F0056534A0059564D0059564D00DE
:1005600055534A0046463C0035352B0045453B0077
:10057000404037004A4A420055544F0062615D00D6
:1005800062615D005554510051504B00625F5A004A
:100590005E5B56005D5A55004D4A4500403D3800AF
:1005A00037342F00383530004D4A45006B68630002
:1005B000615C5500676156006A6358006D655A00BA
:1005C0006C645900615A4E0050493D00534C400044
:1005D00057554E005C5B56005455510050514F002A
:1005E0004D4F4C004A4B4700474640003C393200D3
:1005F0003E3B340042403A004C4B46004C4B4700D7
:1006000047464200474642004C4B470045444000A5
:100610004E4D49004D4C48003C3B3700413F3A00AD
:1006200049464100454440003F403E00383C3A00C6
:100630003A403E00494F4C004D534E00484D470054
:1006400045483F004C4B3E0057534300565245002F
:10065000535046003F3D38003C3B390038383800A5
:100660003B3C3D0045484800464949003E4041006A
:1006700048484A004A4A4B003E404000383C3B0054
:10068000454A4700565B5700575B57005558530083
:100690004B4C47004A4A43004A4A410052514800E5
:1006A00055554B005353490053534A005050460090
:1006B000434239004D4D430045453B00424239001D
:1006C00042423B0041403B00403F3A0041403B003A
:1006D0003B3A350047464100474641003F3E39001E
:1006E0003E3D380046454000504F4A0057565100A5
:1006F0004B4A45003D3C38003C3B38003C3B390010
:100700003B3A38003C3B390045434200514F5000D2
:100710004D4C4D004848480044444400414140008D
:1007200040403D00434340004E4F4A005B5C570051
:1007300052534D0053544E004A4A440045443F0032
:1007400045443F004A49450051514E005657530019
:1007500052524F00545654004F52500045484500E5
:100760004748430055534B005E5951005B554E00BE
:10077000564D4800433A3600534C48005F5A5600E5
:100780005D5A56004E4E4A003F413E004E515000C9
:1007900055585500595955004C4A450047443E00AC
:1007A00046433E0042413C0040413D00484A49002A
:1007B000525450004B4942004A4941004E4D4700B7
:1007C0004C4C480045464500404142003535350017
:1007D000312F30003C3837003E3B37003A3A320088
:1007E000383A30003D3F350043453A003B3D31004B
:1007F00045453A004D4D41004B4A3E00514F4200A5
:100800005B594D00615E54005A574E004A473F0005
:10081000434037003C3932003C393300413E380018
:100820004C494400585450005A5651005E5B5600E3
:10083000524F480056534B004D4A440048453F0034
:10084000403C3800393532003F3B3800403C3A00EC
:1008500053504D0055534D0055544B0050504600D9
:100860004A4A41004B4B420051514A004F4E490009
:100870005655510061605C00595854005959540054
:100880005A5B520057594E00595B51004C4D450080
:100890004E4F48004849430043443E004F504A00F1
:1008A0005556510052534D0055554D004C4C430088
:1008B0004F4F48004C4B46004443400043423F00EA
:1008C0004A4A450052524B0054544B00545449007C
:1008D000626155004D4B40003F3C31003F3C3200CF
:1008E00044413800434039003E3B3500413E38002A
:1008F00054514C00625F5A00615E580058554D00DB
:10090000514E47004C4941003F3C3500403D3500C9
:1009100055524B004E4B430048453D0045423A007E
:10092000403E360038382F0035352C0036362E0044
:1009300034342B003F3E380052514C0062615C0061
:1009400065645F00605F5A005F5D58005F5C570040
:100950004A47420045423D003B38330039363100BA
:100960003E3B3600494641005B58530067645F00D8
:100970005A564F00565147005A5449005A5349009D
:1009800058524700554E4400504A3F0056504500CB
:100990004B49420053524D004C4D49004A4C4900CE
:1009A0004A4C4900464743003F3E390039362F0044
:1009B0003E3A3300413F3900484642004A4945002B
:1009C00047464200474642004F4E4A004F4E4A00BB
:1009D0004E4D4900474642003B393500413F390002
:1009E00045423C003C3A350036373300373A360052
:1009F000363B390044484500484B470044474100D6
:100A00003F4139003F3D3200413C2F00403C320025
:100A10003F3C34003D3C37004747440043434300DC
:100A20003B3C3C003D3F3E00434645003E3F3F00CF
:100A30004646460050504F00424342003639370088
:100A400042464200565A5600585B560055565100D1
:100A500052524D0047463F003B3B32003F3E36007E
:100A600047473E004B4B4200494940004242390053
:100A70003E3D350047473E0040403800393931009F
:100A8000393832003C3B36003F3E390044433E009B
:100A90003E3D38004A494400484742003B3A350051
:100AA0003A39340045443F004C4B460056555000FF
:100AB00051504B0042413D00464542004A494600E4
:100AC00046454300454342004F4D4C005D5B5B0093
:100AD000555555004B4B4A004141400043434200AD
:100AE0004E4E4B00555551005758530064655F00FA
:100AF0005A5B5500595A54004A4A450041403B0050
:100B00004645400051504C0054544F0054544F003F
:100B100055545100575854005D5E5B004E4F4B00DA
:100B200043423C0048463E00524E45005650490064
:100B30005C544E0048403C004D47430054504C002C
:100B400055534F004F4F4B00494B470057595700E3
:100B5000595B5700555550004847400045433B00FE
:100B600045423B0042403A00444340004F514E0052
:100B70004C4D490046443D0045443D004F4F49001F
:100B8000565753005556550051525200464646009E
:100B9000413F3F0044403F00413E3B0042413A005C
:100BA00043433B0041433A00404239003E40360057
:100BB00045463B004E4E430048473C004644390002
:100BC0004C493E0053504600555249004E4B43009D
:100BD000504D45004B484100413E38003C393400FF
:100BE00044413C00524E4A005B5754006965620024
:100BF0005C595400504D4800433F3C003E3B390097
:100C0000403C3B00464142004E4A4A004A464700AB
:100C10005753530053514D00504F470047473E0034
:100C200047473F0050504700515049004C4B45004A
:100C30005857530061605C005756520055554F009D
:100C400052524A00494B41004A4C43004C4D45002A
:100C500051524A0050514B004B4C46004F504B00F4
:100C600052534E004E4F4900494941003D3D350029
:100C70004847410044433E00454440004E4D490032
:100C800053524D0052514B00505048004A4A3F00C9
:100C9000555348004441360039362C003F3C320061
:100CA0004542390045423A0047443E004C49430022
:100CB0005C595400625F5A005A575100514E470028
:100CC000524F4800524F480045423C0043403900D3
:100CD0004E4B440045423C00423F380045433C00F7
:100CE00043423A00403F380043433B0036362F0032
:100CF0003E3D36004A494300575650005D5C560061
:100D00005D5C56005C5B55005B5A5400524F4A00D4
:100D1000403D380043403B003E3B3600403D3800FC
:100D20004845400054514C005E5B560059565000F7
:100D3000535049004B473E004F4B4100504B410040
:100D400049453B00443F3600474238004D483E008D
:100D50003C39340041413C00393B360037393500DD
:100D60003A3C38003739340030302A0038352F000B
:100D700046433C00403E39003E3D39003D3C380092
:100D80003E3D390042413D004847430052514D002D
:100D9000494844003E3D390037353000413E370078
:100DA0004441390039372F0031322B0035373100BB
:100DB0002F322F00343734003739360034353100C4
:100DC00032322C00312E27002E292200322D28000D
:100DD00036332F003B3A36004E4E4A004F4F4D00FF
:100DE0003D3E3B003536320046494200484844000B
:100DF0003C3B39004442400042434000393B37000D
:100E00003E403B004B4D48004A4B450050504A0085
:100E100053524C003F3D3800302E2B002F2E2B001C
:100E20003534310039383500383734003433300048
:100E3000444340003E3D3A003B3A37003A383500E3
:100E40003E3D380045443F004A49440051504B0064
:100E5000403F3A004948430044433E003B3A350096
:100E600042413C004F4E4900494843004948420036
:100E70004C4B470041403C004B4A46005A595500F4
:100E80005C5B59005554510051504E005452510072
:100E900050504F0048484600424240004B4B4900EA
:100EA0005C5C58005D5E5A004E4F4A005758520035
:100EB00052534D0051524C004D4D480045454000A5
:100EC0004B4A45005756510052514B0041403B00A0
:100ED00042403B0046453F005857510054534C0098
:100EE00045433B00423F37004D494000544E4700C8
:100EF000635C55004D46410048433E0047443F0077
:100F000046444000474743004B4D480051534E0074
:100F1000494A450043443D004141390048483F00AB
:100F20004B4A4200484740004B4A45004E4F4B0059
:100F300040413C0048463F00494741004A4A44007E
:100F40004F504C00545453005253520052525100CF
:100F5000555553005A58550056534F005857520094
:100F60005B5C550055564F00494A430048484100D4
:100F70004C4D440058574E0055534A004B493F00D2
:100F800043403600413E340046443B00514E46004B
:100F9000625F580056534D0047443F00413E3900C0
:100FA00044403C004A464300534F4C00605C5900AB
:100FB00063605A004D49440046423E0047444000A9
:100FC0004D4A47005A57550066626100555150001E
:100FD000524F4E0055534E005151490048483F0072
:100FE0004A4A420056564E0057564F004D4C460056
:100FF0004645410049484300403F3A0041413B00DB
:1010000042433B003C3D34003C3D35004D4E4600E4
:101010004C4D45005657510054554F00474842002B
:1010200041423C0042433C004041390042423A00C8
:1010300040403900373631003E3D39004D4C4800C4
:101040004D4C470045453F004A4A420046453B005B
:101050004443380043403600444137004F4C43007E
:1010600059564D005A574F0059564F0058554F008A
:1010700057544F0059565100514E49004F4C4600AD
:1010800054514B0054514B0046433D003E3B35000C
:1010900038352F00413E38004C4944005B5852001F
:1010A0005E5C57005A5953005857510045453E0061
:1010B0005958520066655F006060590055554E00F2
:1010C0004D4D46004847410045433D00413E3800F4
:1010D00046433E005A56520057544F0055524D0059
:1010E00055524D0057544F0057544F0046433E0051
:1010F0004F4C46004C4941004F4C4400504D440079
:101100004341380036332A0039352D003B382F0053
:1011100032302A0033322E00363632003637330072
:10112000383A36003D3E3A003C3C370036332E001C
:101130003B373200312F2A002F2E2A00302F2B0070
:1011400033322E0034332F0033322E003C3B370035
:101150003A3935003E3D39003B3834003C383000E8
:101160003B382D003A392E003F3F37003C3D3700D9
:10117000454643004445420040403D003B3A36006E
:101180003D3A36003F3C36003B373100433F3B00A1
:101190004C4844003F3E3A00474743004D4E4A000A
:1011A000434440003B3D38004C4D470051514C00FA
:1011B000454440003D3C38003F3F3B003E3F3A0045
:1011C00042443E004A4C45004B4C45004D4B4500C7
:1011D00044423C0036333000393736003A39390062
:1011E0003A3939003F3D3E004644440045434400FF
:1011F000504E4F004A494A004F4E4E0052504F0049
:1012000053514D0053524D0052514C004F4E490026
:101210003E3D380044433E00484742004A494400AE
:101220004C4B4600504F4A0053524C00504F49001F
:10123000504F4A003F3E390042413C004D4C49006E
:1012400053524F004F4E4B004746430042413F0030
:101250003C3C39004847450058575400555552000A
:10126000565652005A5B56004F4F4A004F504A00A4
:10127000464741003E3F390044443F0043433E005F
:101280004948440052514C00494742003B39320022
:10129000403C360047443C00524D460058544C00F8
:1012A000504C440048443C00545047005E585100A4
:1012B000655F59004F4944003D3934003A373200E8
:1012C00042403C004C4D480050514B004C4E4800B1
:1012D00043453E00484941004C4C430055554B00A6
:1012E0005C5B52005C5C54005A5B540057585200DF
:1012F000494A450058575100494842003E3D380090
:10130000444440004C4D4A00484946004C4C49007A
:1013100052524F004D4C480051504C005858530009
:101320005E5F590061625C0060605B005A5A550064
:101330004F4E470054514B005E5B54005E5A5200C2
:101340004F4C44003F3C34003D3B330048463F0097
:1013500056544D00514F49004D4B450054514C00DF
:101360005C595500585652004C49450052504800AF
:1013700053514600424135004E4D420057554A00F8
:101380005453490054524A005B595100504E460094
:101390004E4D4500535249005A5A52005858500079
:1013A0004C4C440043433B00484740004645400006
:1013B0003B3A350034332E003938330043433C0088
:1013C00045453D004041380044453D0051524A00EA
:1013D0004F50480053544E004D4E48003F3F390097
:1013E0003A3A340043433E004D4D460055554D00BA
:1013F0004D4D46004948430045443F0043423D00AF
:1014000041403C0044433D004A4A420041403700CD
:101410003E3C330058554C0059564E00535048003E
:1014200055524A005A57500056534D004F4C4600F3
:10143000524F4A0053504B0046433E00484540003F
:101440004A474200403D38003A36320046433F00AA
:10145000413E3A004A46420055514D005C59550004
:101460005E5C5700585651004947430044423D00D6
:1014700055534E005B5A530057564E0055544B007F
:101480004C4B42003D3C340037362E003E3B35008D
:1014900056534E0067645F0063605B00615E5900F5
:1014A0005E5B560058555000524F4A004B4843006F
:1014B000504D480054524C0051504A00484740009B
:1014C0003D3C35003A3832004140380043413A0053
:1014D00046433F00373531003D3E390042453F002D
:1014E0003F413C0040423D004B4A460044413C00E5
:1014F0003D39350032302C0035332F003D3C38006B
:1015000043423E003F3E3A0034332F00373632002C
:101510003736320043423E00484640004B473E00CB
:1015200048443800464439004E4E46004545400088
:1015300051524F005253500052524F004A484400FB
:1015400046433F004945400046423D0046423D007B
:10155000504D470048474300464642004A4B47002B
:10156000464743003E3F3B00444540004A4A450051
:101570004E4B460043413D0042413C003F403A0053
:101580003E3F390041423C0044433D00403E38006C
:1015900037332D003E3B36004D4B470052524E0034
:1015A00051514D0051514D0055545000545450006C
:1015B0004E4D4A00474743004B4B47004D4C4800B7
:1015C0004F4E4900504F4A00474641003F3E3900C8
:1015D0003E3D380045443F004A49440052514C00CA
:1015E00053524D0052514B005757500051514A0031
:1015F0004949430042413B003F3E3900403F3B00E8
:1016000048474300504F4C004D4C49003E3D3A0086
:1016100033322E00484743005655510051514D007A
:101620004F4F4A005554500054544F004F4F4900FB
:10163000494943003F3E39004645400042413D0094
:1016400042413D004847430049474100504D460054
:10165000504C4300544F4600524C44005C564C00E2
:101660005D574E00514C43004F4B4300605B5400AC
:1016700064605A0059544F0045423D003E3C3700DB
:10168000413F3B0044444000454640004849420039
:101690004C4D46005B5B53005E5E55005A5A50004D
:1016A00057574E005A5A51005B5B530056564F0035
:1016B00051514A0056554F0042413C003A393500DD
:1016C00044433F004B4B470043433F003E3F3B00FA
:1016D00042413D0042423D004D4D480052524D00B6
:1016E00052534E0054554F00595954005F5E5900F3
:1016F0005B5953005A5751005B5852005D595200D4
:10170000534F480048453D004B4A430043423B008D
:1017100046463F004D4C46004C4B45004C4B460066
:1017200053514D0054534F00494743004140390045
:1017300043433700424136004B4A3F0055544A006C
:1017400056554C004F4D450047463E0044433C0033
:101750004140390048473F0057574F005D5D5600F4
:101760005050480041413A004A4942005756510002
:101770004A4A44003F3F39004A4944004E4E48001F
:101780004A4A43004A4A420052524A0051524A00D1
:1017900041413A0043443D00403F3A0040403A0056
:1017A0004949430053524C0053534B004F4F48009C
:1017B0004D4D46005A59530058575200504F4A0059
:1017C0004B4A440046453F003E3D360043423A0006
:1017D00043413A00545149005A574F00504D45007B
:1017E0004B484100504D47004D4A44003B383300C0
:1017F00044413C0046433E003E3A3600403C3900FE
:10180000413D39003D393500423E3B0055524E00C6
:101810005854510056524E00524E4A00514D490004
:10182000534F4C004F4C4900413E3A00423E3B0072
:101830004E4B47004D4A44004D4B43005350480027
:10184000504E440045423900403E35004C4943006B
:1018500053504B00625F5A00605D580056534E0073
:10186000524F4A0055524D0057544F00595651009F
:101870005D5B560057575100454540003E3F3800DC
:1018800044443E004D4D470055554E0054544E00C3
:10189000565350003F3E390041423C00484B440003
:1018A0004548410041433D004C4B47004F4B4700EA
:1018B0004B47430042403C00403E3B004948440007
:1018C000504F4B0048474300393834003F3E3A0000
:1018D00041403C004B4A46004E4D4700524F4600A7
:1018E0004F4C41004D4C420055554E004848430076
:1018F0004F4F4C005454520058565400534F4C0014
:101900004D4945004F4B4800514D4B004B48450059
:1019100054514D004C4A4600454440004747420060
:101920004647410040413A0040413A0044443D00AE
:101930004B47420042403A0044443D0043443D008E
:101940003D3E39003D3E380042413B0039363100D2
:1019500036322D0045433E0054534D005C5C570029
:101960005E5D58005A59540056554F005858520061
:101970004C4C470041413B0041403A004646400044
:10198000494843004746410042413C003B3A35004C
:101990003C3B360041403B0043423D004F4E490036
:1019A00054534E004D4D47004C4C450046463F00B9
:1019B0003F3F380045453E004847420043423D0016
:1019C000454440004F4E4B0052514E0045444100AB
:1019D0003736320044433F004A49450048474200F9
:1019E0004948430052504C00565550004C4B46005D
:1019F0004746410043423D004F4F4A004A49450097
:101A000041403C0042413C004A4842005B58510082
:101A1000534F45005A544A00524B42005952480015
:101A2000605A500058534A004C483F0055514A00F4
:101A30005D5A53005C5A54004E4C470046443F00E8
:101A400045443F004544400045443F0047473F0070
:101A50004C4C440057574F005B5B530055554D00AD
:101A600054544C005858500053524B004B4A4300BA
:101A7000494942004948430040403B003D3D380051
:101A800044443F004949440042423D003D3D380046
:101A90003E3D380044443F004C4C4600464742001F
:101AA00041413C0043433E004746410052504C00F8
:101AB00055534D0053504B00504C470057524C006B
:101AC00056514B00514E470056554E0042423B0086
:101AD00041413B004D4C47004C4B460048474300BA
:101AE000494844004E4D4A004F4E4A0045443F008D
:101AF000474740004C4C45004D4C460052514C006D
:101B000053524E004B4A460042413E004A4A48006A
:101B1000464542004746420053524C005C5B55002C
:101B200055544E004A49430053524C0063625C00D6
:101B300050504A004A4A430054544D0051504A0004
:101B40004A4943004E4E4700575650004C4C450002
:101B50003B3A340043433C0044443E004A4943007E
:101B600052514B0055544E005150490049494200D2
:101B7000474741005C5C55005A5A530055554E008A
:101B80005050490044443D00383731004C4C45002A
:101B90004B4942004C49430056534C004F4C4600C1
:101BA00044413A00413E3800403D370036332D0075
:101BB0003E3B360044413B0044413D00413D3A003C
:101BC0003D3935003F3C38004C4845005A565300DB
:101BD0005F5B5800595552004E4A47004E4A470035
:101BE0004D49460046424000423E3B0047434000CC
:101BF00044413D003D3A3400403D35004A473E00F7
:101C00004D4A410048453C004A473F0056534D006D
:101C10004B48430058555000595651004A4742001E
:101C200046433E00524F4A00595651005A575200FF
:101C3000595752004C4C470041423C0044453F003C
:101C40004F504A00595954005C5D5700555650009A
:101C50005B585500494843003F403A004547400023
:101C6000484B440042433D00413F3A004F4B48003F
:101C70005B575400585552004948440049484400B5
:101C80004E4D4900474642003B3A36004C4B470018
:101C900052514D0053524E004D4C47004C4A4200A9
:101CA0004C4A42004E4C450050504A0041423E00D2
:101CB0003F3F3D00494847004D4B4800504B4800CE
:101CC0004F4A4700504C4B0057545600524F50005B
:101CD000585655004847430044433D0044443D00A6
:101CE00044453C0043443A004243390042423A00F2
:101CF000413E38003937310041413A0045453F0007
:101D000040413B003E3F3A0044443E0039363200F9
:101D1000413E3900494643004E4D4A005655520057
:101D20005B5A570054535000474542004F4E4B00FA
:101D30004D4C49003E3D39003837340045434000A2
:101D4000464541003F3E390045443F0045443F0081
:101D50003B3A35003E3D38003A39340046454000B4
:101D60004E4D480043423D0036362F0035352D009C
:101D700038383000484841005958520054534E00FA
:101D800048474300484743004F4E4A0054534F00D2
:101D90004846420043423D0041403A00403E39003F
:101DA00046443F00504E490051504B0044433E00D2
:101DB0003F3E3900454440005958540056565200A1
:101DC0004847430042413C004A48420054514A00BF
:101DD00046423A00555147004F494000524B42009D
:101DE0005B554B005C574D004F4B430045413A005B
:101DF0004E4D450054534C004F4F49004B4A45004F
:101E00004B4B46004E4D49004F4E49004C4A420054
:101E100044433B004141390046463F0049494200A6
:101E200053534C005958510047463F003D3C340045
:101E30003A383200393935004747430048484300B3
:101E400045443F0046453F00474641004B4A43005A
:101E50004A4943004F4F49004B4C46003A3A35003F
:101E600033322E00393833003B3834003D3B3600E6
:101E7000413E3900413D3800433E3800514C450059
:101E800059554D0056544D0054534D0046464000A0
:101E90004A494400504F4A004D4C47004A494500CA
:101EA00045444100484745005A5956005958560084
:101EB0005A5957005A595800545353005150510021
:101EC000504E50004C4B4D004C4A4D00605F62003C
:101ED0005A595C005453520051504C0055544F0015
:101EE0005655500055544F005D5C560062625B00D1
:101EF00047473F004A4A4200504F48004948420085
:101F000045443E004C4A4500514F4A0043413C0085
:101F1000403F390053534B005858500057564F001C
:101F2000515049004B4A43004B4A44004B4A45003C
:101F300042423B004F4F47004A4A41004B4B44004E
:101F40004B4B4400404039003C3B3600595753004E
:101F500053504B0049454000524E4A00504D4800F6
:101F6000413E3800322F2A00322F2A003F3C3700F2
:101F700046433D004D4A440055524E004B474400F5
:101F8000413D390046423E00514D4A0055514D00F9
:101F900055514E00524E4B004C494500524F4B009C
:101FA0004D494600413D3A004C484500524E4B00D9
:101FB0003B383400322F290035322A00403D3600AC
:101FC00045423900444138004D4B420054514B00CA
:101FD00046433E00514E4900514E490043403B00AC
:101FE000423F3A004F4C470053504B004A48430091
:101FF00043423D00383833004949440057585300A4
:10200000595A55005455500050514C004647420013
:10201000524F4C004E4D4900474842004548400051
:10202000494C4400474942003B3A3500403C3900A6
:102030004E494700514D4A0044433F003736320075
:1020400034332F003534300034332F0047464200FC
:102050004E4D4900565551004F4E490045443E00F3
:1020600045453F004849440040413D00323431007D
:10207000363737003F3F3D003D3B39003D393500A5
:1020800044403B004C4943004A49430046453F0019
:102090004A4A4400494942004B4B440043423D00F8
:1020A00041403C0046464300444341004C4A4700FF
:1020B0004F4D47003F3F380032322C0033342E0062
:1020C0003839330038393400363631003837330088
:1020D0004E4B49004E4C4C004C4A4C004F4D50006A
:1020E0004F4D500046434600383639003E3C3E00D6
:1020F0004946490047454800474446004A49480088
:102100004A494500464540004A49440052514C0066
:10211000504F4A0058575200504F4A004A49440015
:1021200044433E003939330033332B003B3B32000C
:102130004B4B43004D4D46005757510057565100E9
:1021400042413C00302F2B003E3D3900595753008F
:102150005756510057544E0059575100514F49009E
:1021600047453E0043413B0042403B003936310089
:1021700043403C00403D3A00464441004B4A460043
:1021800052514C0054534E00484742003B393300F3
:102190003F3D360053504900504C4500504B4400E1
:1021A000565149005E5950006562590057554D001F
:1021B0003B3B330037373000393A34003F3F3A0079
:1021C000464641004D4C480054524D00615F570057
:1021D00054514A0044423C0042423C003E3E3900D9
:1021E00042423D004A49440047453F0048463F00BF
:1021F0004946400043433E00575854005A5A56003F
:102200004D4B45004A4740005C5A53005B59520011
:102210004D4E46004A4B440044453E003E3E390088
:1022200042413D0053514C00605D58004F4C470007
:10223000433F39003F3A3500433E3800514C44009B
:102240005A564E005250490043443D004D4E4800FE
:102250005C5D57004D4E49004748430046464200EA
:1022600042424000424240004E4E4C0059595600F6
:10227000575855004A4A47004C4B490053545200A6
:102280005959580057565600515151005C5C5C003A
:10229000605F610061605E005C5B57004D4C470011
:1022A00044433E004D4C47005D5D570053534C0086
:1022B0003B3B330037372F0036362E00403F380087
:1022C0004A4842004A474200423F3A003C3A350001
:1022D00044413B0058564F0057554E005957500047
:1022E00058554E005150480054534D005C5B560009
:1022F00044443E0035352C003333290037372E0057
:102300003B3B33003F3F38004948420053524E00A8
:1023100059565200514E4A004F4B480047433F0028
:102320003F3C38003B3833003835300048454000EA
:1023300056534C0055524B0057544F0054514D00CA
:1023400053504B0054514C0054504C005D5A5500B2
:1023500055524D004945410046433E0044413C0032
:10236000423F3A0046423E00514D49005955510006
:1023700046433E0043403A0049463E0055524B001A
:10238000504D46003E3B330039362F00403C37006D
:1023900056534E0055524D0053504B004C4944008B
:1023A00047443F0047443F0045423D0033302B0047
:1023B00033322D003F403A00565751005D5E5800C1
:1023C0004D4E48003839330030312C003B3C36004C
:1023D0003F3B38003D3C37003C3D36003D40370038
:1023E00044473E004C4D46004D4B47004C4745008E
:1023F00047434100403D3A00363430002D2C280040
:102400002D2C2800363531003D3C380044433F0038
:1024100044433F00494945004646410038383500AD
:1024200032333000343634002E303000232626007C
:10243000252828002F302E003333300036342F006B
:1024400037342E0035332E0030302B002E2D28004F
:102450003736300047463F004B4B430046453E0071
:102460004949430053524F0051504E0054524F00BF
:102470004F4E480041413B00383933003D3F3A0060
:10248000484B46004C4E4A00434541003535330029
:10249000474544004B4947004645420044443F00FD
:1024A00041403C003A39340037353100484742005A
:1024B00053524D0051504C004F4E4A004E4E490071
:1024C000464540003C3B360042413C0056555000DA
:1024D0004C4B46004E4D4800484742003F3E3900B5
:1024E0003837320035352F003B3B320047473D003F
:1024F0005C5C540052524A004F4F47004C4B450021
:1025000043423D003C3B370043423E004D4B4600BA
:10251000494640004D4A43005351490059564E0028
:102520004F4C45003B38330036342F003C393500E2
:102530005753500055514E0043413D00413F3B0031
:102540004D4C4700565550004C4C470033322D003F
:102550003938330045453F00494843004D4C46005B
:10256000524E4700565149005D5950005A5850008C
:10257000494A420044453D00484A4300464842001B
:10258000484843004D4D4800504E49005D595200A7
:102590005E59550055534F004E4D4A004545430086
:1025A000454542004A4945004A47420056524C00C0
:1025B0005E5A55004948450055555100585753003B
:1025C000504E4700514E4600625F56005E5C53001D
:1025D0005050470050514A0042443D0045453F009D
:1025E00054524C00615F590068655E0065615B0094
:1025F000605C55005A564E004A453C004E4940002A
:1026000057524900514F48004A4B450054554F001E
:102610005B5C56004C4D48004647430040403D003F
:1026200041413E00454543004545430052534D005E
:1026300053554A004D4E440052534A0050514900F0
:1026400050514A005656500053544D004B4C4600D2
:102650004B4B4600565652005756520047464100D3
:102660003C3B360045443F00504F4A0041413A0050
:1026700044443C0046463D0043433A0044433C004A
:102680004A4843004B484400423F3A0045423D001F
:102690004B4843004A47410046433C0046433B0009
:1026A0004B483F0052504800585752005C5B560060
:1026B00048484100404037004C4C420050504600D2
:1026C0004C4C43004C4B450053524D005655510065
:1026D0005F5C5900534F4D00423E3B00403C390087
:1026E0004E4B470058555100504D480054514C0036
:1026F00057544D0055524B00535049004E4B450026
:1027000053504A0057544E004E4B450054514C0014
:102710004D4A440057544F0056534D004A4741001C
:1027200049453F0056524C00635F590064605B00AE
:10273000544F4A0059554F005B57520054514B00BB
:1027400048453F00423F390048453F00514E49004F
:102750005D5A550057544F004E4B460053504B00A6
:102760005956510053504B0045423D003E3B360008
:102770004E4C470052524B005757510052534C0099
:1027800041423B0035352E003E3E380052524B0050
:102790003B37340034332D00363830003B3E3400B4
:1027A00041433A00474941004D4B47004A454400E8
:1027B0003C373600302E2B002D2C28002D2C2800E5
:1027C00031302C003A38340043423E0044433F004D
:1027D00042423E003D3D3900393936002F2F2E0050
:1027E000292B2C002B2E2F002D3032002E323400BE
:1027F000282B2D002B2D2C00393A370044423D0068
:102800003E3B3600302E2A002A2A27002D2D290093
:1028100033332C0043433B0046463D0045453D00D5
:102820004C4B450054534E004F4E4B004B4A470013
:102830004746410040413C003E403B004548430084
:102840004C514C004F524F00494B49003A3A390025
:102850004140400044433F00414038004040360082
:102860003F4036003D3D33003E3D33004D4C42007D
:1028700057574D0057574E005050460049494000A9
:1028800042423B003D3C370042413C0051504B002E
:1028900044433E004645400043423D0042413C0027
:1028A00041403B003E3E3700424239004B4B410025
:1028B0005959500052524A004E4E470046453F007B
:1028C00043423D00484742004C4C46004B4A4400BE
:1028D00048453E00413E360046433A0053504700CB
:1028E0004E4B44003D3A35003B38330043403B00FB
:1028F000595552005753500044413D003C3A350071
:1029000044433E004F4E4A004B4B460036363200A1
:1029100034343000363834003D3F3B0046474300F6
:102920004A48430048443D0046433A004B49410071
:102930004C4E46004E504800565A520051544D00DD
:102940004D4E490050504B00514E490057514C00DC
:1029500056514C0054524F004E4D4B004B4B4A00C9
:102960004F4E4D00514F4D004C494500534E4900CC
:102970005B5652004A4947004E4E4A0052514C00A5
:1029800053504900565249005C584F0059574D006A
:102990004E4E4400494A42003F413A0049484200F5
:1029A00059575000605E5600605D560064605900E3
:1029B00066625900615D530048423800494339005E
:1029C000514D43004E4C44004C4D4700565751006A
:1029D0004D4E49004A4B46004B4C4800454542008D
:1029E000464644004B4B4A0046464400464640009B
:1029F000494B3F004C4E4200515248004A4B420066
:102A000044453C0047484000494B42003D3E3700AA
:102A1000393A340045454000454541003D3C3800C9
:102A2000383732003B3A3500403F39003838300003
:102A30004A4A420057574D005A5A510054524B00CF
:102A400049464100423E3B0045413D00524F4B004C
:102A500055524D004F4C45004E4B440049463E00F8
:102A600049463D004F4C44004F4D48004C4B4700F9
:102A700043423C004B4B42005C5C52005D5D5400A5
:102A800051504800494941004F4E49004D4C4800C3
:102A900057545200514E4C00413D3B00423E3C00D9
:102AA00053504C005E5B5700595651005956500028
:102AB000514E470053504900514E4700504D45007C
:102AC00056534B0057544C004A474000535049005E
:102AD0004D4A44005B58510056534C004C4942004B
:102AE0004D4A420059544E00625E5700615C5500E9
:102AF00059544E00615C56005A5551004A454100F8
:102B0000443F3B004D48440057534F005F5C570023
:102B10005D5A550053504B004B48430055524D00F1
:102B20005E5B560054514C0044413C004D4A450008
:102B300064625C006261590055544C0044443C009E
:102B40003B3A330042413A0054544C005D5C54001F
:102B500046423F0038373200393B32003D403700B3
:102B60003D4037003A3B35003937350036333300C6
:102B70002E2A2A00272523002F2E2A00373632003E
:102B80003A3834003C3A3600403F3B0042413D0079
:102B900045454200363533002E2D2C002D2E2F00BA
:102BA0002F313300333638003D4143004D5254003D
:102BB00040444500383A39004C4D49005C5C5600B1
:102BC00053514B003E3D38003A3A370045454100ED
:102BD00041413A003E3E36003D3C35003F3E370025
:102BE00044423D00464541003F3E3C0038373400FA
:102BF0003B3B36003F403B003F423D0042464100E8
:102C00004246420041454200444646004445440095
:102C1000434244003F3E3B00403F380044443B00B9
:102C20004B4B41004C4D430047473D0047473C005C
:102C30005151470057564D0048483E003C3C340037
:102C400041403A004A4944004847420044443F005A
:102C500041403B00474641004948430055544F001E
:102C6000595853004F4E480046463E0048483F00E2
:102C700046463D004B4B430051514A0047474100F7
:102C800042413C004B4A450052524C0054534D00C7
:102C900058564D003D3A32003B393000423F360035
:102CA00045423A0047443F004C4A44004A474200EC
:102CB0004744400043403C0047454000413F390005
:102CC0003E3C380044423E0044433F0041423E0007
:102CD000353633002F322F00353835003F423F0064
:102CE00043433E003B373000302D250036352D0064
:102CF00040423A004B4E46005A5D5600575A530028
:102D000051524D0052514D0054504C00504A460013
:102D10003E393500403C3B00424040004B4B4B00AD
:102D200056555500575554004C494600433E3A000D
:102D3000423D3A00494946004A4A46004E4D480045
:102D400055524B00555248004F4B41004D4C4100ED
:102D500046463C0037382F003B3D340047473F0094
:102D60004F4D4500504E46004E4B43004D4A4100EA
:102D7000504C42004F4B40003F3A2F00423C310044
:102D80004B463C004A483F004647410053544F00E1
:102D90003D3D38004647410052524E0052524F00CE
:102DA0004F4F4D0051515000504F4E003C3C3800A9
:102DB00040413900484942004949430046464000E5
:102DC0003C3C3700353531003C3C38003A3A37005E
:102DD000383836003838350032322F003635310079
:102DE000393834003635300036352E003B3B330061
:102DF00048473F005D5D53006C6C630067665E0092
:102E00004946420034302D00494542005E5B570080
:102E10005E5B5600625F58006A676000615E560044
:102E2000524F470048463E003D3C3700393833009A
:102E3000393932004D4D440057574D0055544B0021
:102E400045453C003A3A3200403F3A0037363300BD
:102E500043413F004F4C4A004F4B49004C4846000D
:102E60004B4845004C4945004F4C470053504A00E1
:102E700049463F00504D460054514A0058554D00B8
:102E80005A574F00535048004A473F005A574F0087
:102E9000535049004E4B430045423A0047443C00E2
:102EA0004E4B43004F4B43004C4840004C474000C2
:102EB000514C460056524C0047423D003D383400CC
:102EC00048433F00595451005D5955005F5C58001C
:102ED000585551004E4B46004A474200524F4A0057
:102EE00053504B0047443F00423F3A00595651006F
:102EF0006866600066645D004F4D450039372F00FD
:102F00003C3A330055534B0063625A0054534A0015
:102F10004A45400045433E003C3D380034373300CD
:102F20002D302E002A2C2B002D2C2E002B2A2E008B
:102F3000302E3100373533003C3B36003C3B360009
:102F40003A383400363330002F2C2A002E2E2C0035
:102F50003131300034353400393939003E3D3B00E1
:102F6000444440004B4C4800525351005C5E5B00AF
:102F70005A5B580050514C0050514B0052524A007D
:102F80004D4C440046453D004747400053544D00DA
:102F90005757510038383200302F2B002F2E2A007F
:102FA0002F2D2B00343231003C3B3A003B393800A6
:102FB0003A39350041423D003E403B00383B360047
:102FC0003A3E3A00474A470053555300494A4800A1
:102FD0005353530053524F0053524E0054534D001D
:102FE0005756500053524D0042423C0040403A0078
:102FF0004646410044433E003F3F39003D3C3700D8
:10300000464540004B4A45003D3C37003E3D3A00B6
:103010004A49450052514D004F4E490053524D0010
:1030200052514C004C4B46004E4E46004C4C430017
:1030300042413A0038373100393934003F3E3900D7
:1030400044433E00484742004B4B44004A4A42003A
:103050005D5C53004A483F004341380038362D003C
:1030600038372E0048463F0053514B0053514B0018
:1030700044413B0036342E00504D470056544D001D
:10308000494741003F3D370042413C0050504A0013
:1030900054544E004A4C47004F514D005455500077
:1030A0004E4D4800434039003F3D36004B4A4300F7
:1030B00042433C0040413B0046484200484A4300EE
:1030C00045443F0044423D0047433F003834300010
:1030D000322D290039373500464544004B4B490015
:1030E0004A4A48004B4A47004D4B460048443F007F
:1030F0003C3A340052524F005B5B5800555550002B
:10310000504E47004D4A4200454239003C3A31009A
:1031100038382E003F3F3700404139003E3E3600F0
:103120003939320034342D0034332C0036342D003C
:103130003F3C340048443B0049443A00413B3100A5
:10314000433F35004B494000484841005657500026
:1031500048474100414139004747400053534C0024
:1031600051504A004948440052514E0056555200B1
:10317000545350005A59560052504E004B4A480082
:103180004947460049484700514F4E0055545300A7
:1031900057565600494746004645420049484400B4
:1031A0004D4C4800504F49004F4F48004E4E46008E
:1031B000403F38004B4B43005C5B5400605F59005C
:1031C000504F4A0044413E0054514E005F5D59004B
:1031D00054524C00524F49005957500059564F0015
:1031E0004B4841003F3D360044433E0048474300C2
:1031F000464540004747400044433A00403F3700BF
:1032000043423B004847410041403A002C2B2700F5
:10321000383735004D4B49005D5A580052504C002C
:1032200046444000494741004C4A440047443E0060
:1032300046433B0055524A005D5A530056534B00DB
:103240004C49410045423A00423F380054514A003F
:1032500046433C003E3B3300403D3500504D450069
:1032600059564E004E4A42003A362F0036312B0056
:1032700038342E0038332D003B37330046423E00B1
:1032800055514D005E5A56005A565200524F4D004D
:10329000514E4B004D4B47004644400044423D00D8
:1032A0003E3B36003D3B350053504B0065635D00AF
:1032B0005C5B54004F4D45003A3831003A383000DD
:1032C00045433C004E4C44004F4D460049473F00AB
:1032D0003E3834003B393600343533003234350063
:1032E00035383B00383B3E00383A3E00414146000D
:1032F0003F3F42004444410044443E0046443F00B6
:1033000045423F003D393700312E2D002C2A2A003E
:103310002A2B2C00333637003E41400047474100FE
:103320004E4B41005450470058554D0058574E00E1
:103330005A5950004D4C430047463E0045443C001E
:10334000424139003F3F360041413A004747420081
:103350004D4D4900393836003735340032313000B0
:10336000302E2D00353431003E3D3A0047464200B4
:10337000474641004E4E490050514C004B4B4600D1
:103380004344400044454100494A46003A3B370027
:103390003D3D390041403C0044433E0042413C0039
:1033A00041403B003F3E390038383300373631006A
:1033B0003E3E3900383732003B3B360042413D004B
:1033C0004F4E4A0055545100474642004C4B48006E
:1033D0004E4D49004D4C480043423E0044423F00A0
:1033E00043423F0041403C0045453E003F3F3800DE
:1033F0003837320032312E003F3E3B004C4B480004
:1034000055545000565650004E4E46003E3E340035
:1034100049493F0044433900414037003D3D3400B5
:10342000403F36004C4B430056554D004C4B44003A
:103430003D3C34003B3A3200525048005D5A520045
:1034400054514A0046433C0043413A004E4D460029
:10345000525149004E4D4700504F48004E4D4700D5
:1034600048464000423F390045423C0056544E0019
:10347000504E4900413F3A003E3D3800474641002A
:10348000484641003F3C38003B3834003A3834006D
:10349000413F3B004846430052514D0048484300DD
:1034A00043423D004B4A44004E4E46004B494200C9
:1034B0003C3B34004D4C480050504C004D4C4700B4
:1034C00045443E00413F390048453F0048484100DF
:1034D00046463F0051514A0054544E004E4F4A0058
:1034E00044443F003C3C38003F3F3A0045443E00E6
:1034F00046443E004D4B4300524E46004540380086
:1035000046423900545148004F4E450055544B0037
:103510004E4C44004B494100504F470053524A0023
:10352000514F4700514F48005B5952005B585200C1
:1035300054524C004F4D480045423D00403D38003C
:103540004846410058565100605D59005A58530092
:103550005C5A55004644400043423D004645410008
:10356000494843004B4A45004E4D48004A494300F4
:1035700036352F0039383200494842004F4E490055
:103580004D4B46004D4B4700514F4B00504E4900AC
:1035900055544F004947420047453F0041403A00DB
:1035A0003E3D360045433E004F4E49004E4D4800DB
:1035B0004E4D480052514B004B4B4400494841008E
:1035C00051504A0059585300504F4A003837330081
:1035D0003B3A370043423F0056565200575752007D
:1035E00053524D0053524C004D4B44003E3B34006F
:1035F0004E4B430058554D005350490045423C0046
:103600003E3B35003D3A34003C39330046433D00F3
:1036100046433D0049464000535049005C59530021
:103620005F5C550056534C0046423D003F3B350021
:103630003F3B360046423D0054504B005C5854001E
:103640005F5B57005A5753004D4A460047454200BA
:103650004B4846004947450043413E00403F3A0041
:103660003E3D370044433D005B595300605F5800C6
:103670004A4A43003C3B34003A39320045443E005C
:103680004D4C46004E4D4700504F49004E4C4600B1
:1036900036302F00363435003434360037393C00AC
:1036A00041454700484B4C004346460051535200A9
:1036B0004A4C4900494A46004443400047454200BD
:1036C0004A46450045413F003D3938003C3B3B0000
:1036D0003334340035393900404542004B4A430009
:1036E0004E4A3F004F4A3F004F4A41004C493F007D
:1036F0004D4A41003F3C340039362F0038362F0008
:10370000393830003A3932003A393400363532002F
:103710003B3A38003A39390042404000413F3F00CF
:103720003F3E3C003F3E3A003D3C370045453F00B0
:10373000484742004D4C470053534D0054534E00F0
:10374000494843003E3D38003F3E3900373732009C
:103750002E2D280033322D00383732003635300018
:1037600034332E00363530003D3C37003B3A3500CF
:10377000393833003A39340043423D004948430068
:1037800054534F005A5956004F4E4B0051504D0064
:1037900049484500464541003D3C3800403F3B001C
:1037A00044433F0042413D00403F3A00363530003F
:1037B0003A3935003A3937004544430051504E00FC
:1037C00058575400585752004C4C44003A3A2F0076
:1037D0003C3C330045453C004949400049494100D3
:1037E00047473F00494840004F4F470043433B0095
:1037F0003939300044443C00504E460057544C0088
:10380000524F480046433B00403D360049463F008A
:103810004D4B43004E4B440048453E00423F38006C
:10382000413E380042403A0043403B00514E49007F
:103830005755500047443F00403D3800494641003D
:103840004B484300413E39003F3D38004A48440060
:1038500052514D004C4B460051504B004A494300D9
:1038600047473F004F4E4600505047004B4A4100EB
:103870003B3B310042423C00454440004A49440041
:103880004645400041403B004F4D480058585200CB
:10389000585852005757510057575200545550002E
:1038A0004F4F4B004B4C48004F4F4B0051514C0079
:1038B0004E4D48004B4A4400504E470046433D00A1
:1038C00047443C0053514700504E44004B49400090
:1038D0004C4941004F4C450055534D00514F480055
:1038E0004C4941004E4C4200535146004E4C43005F
:1038F00047443D00403D36003C3933003C393300FD
:1039000048453E0058554F005D5A5400514E4700FF
:1039100053504900403D38003D3C3700403F3A009D
:103920003F3E3900403F3A004A4944004847420080
:10393000383732003C3B360045443F0045443F00A9
:10394000474641004F4E4900504F4A004948430006
:1039500053524D004A49440044433D003938330036
:103960003A3A340048474200504F4A004F4E49000F
:103970004F4E4900585852005655500054534D0070
:10398000585752005B5A550051504B0043423D007E
:10399000494A450041413C00464742004E4E4800DE
:1039A00051504B004E4D470046443D003E3B3400D5
:1039B0004E4B4200524F460045423B003A373100E1
:1039C000393631003D3A35003E3B360043403B003E
:1039D0004E4B460056534E00615E5900615E5800E2
:1039E0005A575100524F49004A4741004A47420046
:1039F0004F4C470056534E00615E590064615C00B5
:103A00005D5A5500514E4900423F3B003D3C390054
:103A100042403D00484744004A494500474641006E
:103A200047464100504F49005A59530051504900F0
:103A30003C3C3500383731004746400052514C007D
:103A400053534D0051504B0052514C0056555000AD
:103A5000373236003C3A3E003D3E40004143430091
:103A60004C504C0051544D00484B410054574A00B3
:103A70004E504500454642003D3C3C003E3B3D002B
:103A800043404100464242004946450057575400D2
:103A9000484A4600383D39003F443F00474741000F
:103AA00046423C00403D36003C3933003C38330050
:103AB0003A3632002F2B27002D292500302D2800E3
:103AC00036342F003B3A3400383733002B2A270096
:103AD0002C2B29003D3B3B004B49490052504F00E5
:103AE00053514F004B4A46003A39330037363000C5
:103AF0003C3B36003D3C370041403B004B4A4500D3
:103B000046454000383732003C3B360045443F00D4
:103B1000302F2A00363530003C3B36003C3B360027
:103B2000383732003E3D38004F4E49004B4A450081
:103B30003837320044433E00504F4A004F4E490050
:103B400051504C005857530051504C0048474200C8
:103B500041403C0044433F0044433F004A49450044
:103B600051504B004F4E490041403B00363530002C
:103B7000474643004B4A48004847460049484600EC
:103B80004B4A47004948420043423A004040350012
:103B90003E3E3500505048005757500054544D0099
:103BA000484841003F3F3700403F38003C3C34002C
:103BB000383831004B4B44004B4A42004A484100E0
:103BC00047443D003F3C36003C393300423F39001A
:103BD0004C4943004B4841003E3B350038352F00EF
:103BE000403D3800484540003F3C37003F3C3700EF
:103BF00055524D004E4B4600494641004946410052
:103C00004946410048464100504E49005C5B570020
:103C10005B5A560043423D0045443F005050490026
:103C200054544C00515149004F4F460047473D0006
:103C3000393930003B3A340042413C004D4C47009A
:103C40004F4E49004D4C470056555000605F5A009A
:103C500062615C004E4D48004747420048484300BF
:103C60004D4E4900555551005756520051504B008A
:103C7000504F4A0041403B0046443F004846400008
:103C800046443D0048463C0049473E00403D360022
:103C900046433D004B48440054514D004F4C4600B4
:103CA00044413A003E3B33003E3B31003C3A310058
:103CB00037342D0037342E00413E370048453E0052
:103CC0004A4740004B4841004C49420043403900BC
:103CD00044413B003C3934003C3A35003C3B360023
:103CE000383732003A393400494843004C4B4600DB
:103CF00044433E0052514C004F4E490045443F0062
:103D000042413C004B4A450053524D004D4C470048
:103D10004D4C470052514C004E4D480044433E002C
:103D200043423D00494843004A4944004F4E490040
:103D30004F4E4900585752005B5A55005655500097
:103D400051504B004C4B460042413C0044433E0026
:103D50005B5C57004647420034352F00383933004A
:103D60003E3E38003B3A34003B3A320049463E0082
:103D700046433A00454239003A3730003A3732007C
:103D8000413E390046433E004B484300514E4900F6
:103D90005C5954005E5B560065625D005A575200E4
:103DA0004A474200423F3A00423F3A00524F4A00DF
:103DB0005D5A55005C5954005D5A550059565100E2
:103DC0004F4C470045423D003F3D38003A393500F1
:103DD0003B3A35004D4D48005958540054534E005D
:103DE00053524D005958530052514D003F3E390037
:103DF0003635300043423D005B5A55005D5C57004C
:103E00005655500053524D004F4E49005A595400D8
:103E1000423F42004847490046474700424541006B
:103E2000474B43004D50450046493A004C4F3D003A
:103E30004E4F42003E3F3C00343436002E2C2F00C3
:103E40002D2B2D00343131003F3E3B00575753009E
:103E500058595400393D3600393D3600393A37005B
:103E60003433330033323100363434002D2A2A0003
:103E70002C282800312E2C003A363500403C3B00DF
:103E800044413F0048454100464540003A3937002B
:103E90003C3B39004F4E4C004D4B4A0047464400D6
:103EA0004443410043423E00403F3A003635300033
:103EB00035342F0035342F002F2E290032312C00BD
:103EC000373631003D3C37004A49440056555000D2
:103ED00041403B004D4C4700585752005756510047
:103EE0004D4C47004B4A45005655500054534E0028
:103EF0003E3D38003D3C3700494843004B4A4500B1
:103F00004D4C470053524D004E4D4800373631005E
:103F10004646400055554F005958530052514C00E9
:103F20004E4D48004C4B46003F3E3A003E3D390066
:103F300052514E005958550052514F0046454200CB
:103F40003F3E39003B3A34003838300045453C00AC
:103F500046463F004E4D48004E4E48004A494400F8
:103F600044433E003C3B360032312C0030302900C7
:103F700038383200474741004B4A44004B49430020
:103F800046433D00423F390046433D00413E380034
:103F90004D4A4400403D37003E3B3500423F3A0029
:103FA0004D4A450055524D004B48430037342F00D1
:103FB00045423D004E4B460055524D00484540009D
:103FC00044413C00514E49005B585300595854003D
:103FD0004C4B4700403F3B00494843005756500078
:103FE00055554E0047473E003F3F3600414138009F
:103FF000484840004F4E48004F4E48004B4A45004D
:10400000494843004D4C470054534E004D4C470027
:1040100052514C003D3C380034332E00302E2900E4
:1040200033312C003E3C360045433E003D3C3700DA
:1040300045443F0040403B0045443F0051504B0049
:10404000484643003835330045413F00504D480055
:104050005956500056534B0056534A004F4B44009C
:10406000403C360037333000403C3A0044403E008C
:10407000413E390045423D0057544E005E5B5600BC
:10408000514E48003F3C3700423F39004F4C4600FC
:104090004946400045433E0041403B003E3D38001C
:1040A000403F3A004948430054534E004D4C4700AE
:1040B000474641005A59540051504B0042413C0080
:1040C0003D3C370043423D004F4E4900504F4A00AF
:1040D0004A49440051504B004E4D48004D4C47005A
:1040E00052514C00585752005756510057565100E4
:1040F0005B5A5500585752004A4944003F3E390028
:104100003D3C37003C3B3600363530003C3C370008
:104110004D4D48003F403B0034342F0032322C00DC
:1041200034342E003837310044433B0064615A0078
:1041300058554C004C49400045423C004D4A450012
:10414000585550005E5B560065625D006A6762000C
:1041500064615C005E5B56005E5B56004B4843004A
:10416000383530003B3833004B4843005855500039
:10417000524F4A00514E490053504B0048454000B1
:104180003C393400413E390055534E0051514A00EC
:104190004C4B4500595953005B5A55005B5955002B
:1041A0005B5A5500575652004C4B47003E3D390074
:1041B000403F3B0052514C0064635E005F5E59001B
:1041C00055544F004D4C470042413C004B4A45007E
:1041D0004C4C46004C4C470043443F003F413B00A1
:1041E00043453E0046473F0043433A0046463B00B6
:1041F000484740003C3C39003D3D3D003E3E3F00CD
:104200003B3A3A0036353300383834004F504B00D3
:1042100052544E003B3E380031342F0031333200CF
:10422000323335003333350033323400272628004B
:1042300028262700353433004B4947004D494700B5
:1042400044413E003F3C38003A3935003C3B3800A1
:104250004544410051504D004D4C490045444200F9
:10426000403F3C0043423E004A4944003D3C370049
:104270003938330042413C003635300033322D00AE
:104280003B3A350043423D0044433E0044433E0038
:104290003B3A35004B4A450054534E0054534E00B0
:1042A0004D4C47004A49440051504B0052514C007C
:1042B0004B4A450043423D003C3B36003B3A35000B
:1042C0003F3E380042413B003F3F380035352E002D
:1042D0003D3D37004D4C46005756500053534C005F
:1042E0004948420041403A003B3A36003A393500ED
:1042F00044433F004A4946004C4B48004746430070
:104300003E3E3900383731003838300041413900FD
:1043100042413C003B3A36003F3F3A0048474200AA
:10432000474642003E3D380039383300464540009C
:1043300043423D0046453F00423F3B0045413E0071
:10434000494541004C48440053504C004B48440000
:104350003C38340037332F00423E3A004744400097
:104360004C494400504D48004A474200413E390004
:104370004A474200524F4A004C49440043403B00E8
:1043800045423D00504D4800504D48004A494500C7
:10439000484743003D3C380042413C004E4D4700F9
:1043A0004B4B4400403F38004141390046463E00F7
:1043B00054544C0052514C0055544F0052514C0033
:1043C000484742004847420054534E004A4944007F
:1043D0003F3E39003D3C370046443F0044413B00EE
:1043E0003D3A33003A3730003836300035342E004D
:1043F0004C4B46004E4E4A00484844004E4E4B003F
:104400004A494700403E3C004B48460055514E004B
:10441000504D490045423E00413E39003F3C370087
:10442000413D39004945420054504E00514D4B002A
:104430004C48450055524D005A5752005D5A56009F
:10444000585551004D4A4600494541004A464200F0
:104450004945400043403B0045433E004D4B46002C
:10446000504E49004A48430044423D0042403B0010
:1044700047464100514F4A004745400043423D00F6
:10448000494843004B4A4500464540004A494400DC
:1044900043423D0041403B004746410048474200FF
:1044A0004B4A450052514C0053524D00504F4A0068
:1044B0004C4B4600464540003D3C37003F3E3900EE
:1044C0003F3E39003E3D38004A4944004A494400D5
:1044D0004848430042423D0043443E00494A4400AC
:1044E0004B4A440044433D0043423B005A5850006D
:1044F0004F4C430047443B0048453F004D4A450070
:1045000056534E005B5853005A57520065625D0087
:10451000605D580055524D004A4742003F3C37000D
:10452000403D38004C49440054514C00504D480027
:104530003D3A350043403B004B48430045423D0077
:104540003D3A350044413C005956500062615800E4
:104550005E5C540062615A0056534E00514E490051
:10456000514F4A004A4844003D3B38003F3D3A0025
:10457000494743004948430053524D004B4A4500C8
:10458000403F3A003938330033322D003A39350094
:10459000484A3F00494A41004041390040413B0000
:1045A00041413D003D3C39003A3836003A3735004C
:1045B0003D3B3A003938350040403D004A4B47000A
:1045C0004E4E4B0044444000373733004B4C4800BC
:1045D0004C4E4B003C3D3A00353634003D3F4000E8
:1045E00042464800404244003D3D3F0036353600DB
:1045F0002E2D2D003B3A380052504D00504D4A00B0
:10460000403C380033312C0032312C003D3C380026
:104610004847430052514E004D4C48004645420029
:104620003F3E3A003E3D39004A49440043423D0086
:104630003E3D38004A4944003D3C3700393833009C
:1046400042413C0045443F003B3A350034332E00A4
:1046500036353000474641004D4C47004847420040
:10466000403F3A003D3C370042413C0045443F005A
:1046700052514C004C4B46003F3E39003C3C36000A
:104680003938310034342C003A3A32003D3D35009F
:104690003737300042423B004C4C45004D4D450001
:1046A00043433C003D3D360044433E0044433F000D
:1046B0003A3935003D3C3800403F3C00403F3B002C
:1046C0003F3E39003E3D37003C3C35003B3A33002D
:1046D000393834002E2D290035343000474641004A
:1046E0004A4944003F3E3A00403F3B005857520081
:1046F0004847430041403B00383531003B373400E8
:1047000046423F004F4C480056534F00504C490022
:1047100036322F003D3936004C484500504C490098
:10472000504D4800504D48004D4A45004946410013
:10473000494641004F4C47004946410047443F002D
:104740004A4742004B48430048464100494844001C
:10475000504F4B0043423E0042413D0046453F0022
:10476000403F39003E3D36004E4E46004E4E47001B
:104770004F4F47004B4A44004A49440048474200D3
:1047800041403B0043423D0055544F004C4B4600D6
:10479000373631004645400054534D0053514A00CE
:1047A0004D4A420047443C003C3A340034342E0029
:1047B000494A44005353500049494600484946007D
:1047C0004B4B490049484500484540004D4A470089
:1047D0004E4A49003D393A003B3738003E3A3A00EC
:1047E0004844420056524F005C5855005754500000
:1047F0004A464300575350005956520056534F00F3
:10480000575350005955520054504D004E4A4700DE
:104810004F4B480046423E004D4A45005B5853000E
:104820005E5B5600504D4800403D380044413C001E
:10483000484641004946410044413C004C4A45003D
:104840005655500053524D0045443F0048474200E2
:104850003C3B3600373631003E3D3800403F3A00A1
:104860003F3E390044433E004E4D48004847420019
:104870003837320034332E003D3C37004D4C470072
:104880004C4B460047464100585752005C5B56006F
:104890004E4F4A004A4A45004D4E490052524D0083
:1048A0004F4E490044433D00403F370053504900BC
:1048B0004B483F0046433A004C49420049464100BC
:1048C0004D4A450053504B004B48430056534E0051
:1048D0004E4B4600413E39003B3833003E3B3600EC
:1048E00049464100514E49004D4A45003E3B360085
:1048F00035322D0046433E004E4B46004B484300A8
:1049000048454000504D47005F5C540068665D00BC
:1049100065625A005F5C54004F4C4500504D4700A3
:10492000524F4A00474440003B3835004B47450052
:1049300055524F0043423D0043423D003A39340056
:1049400031302B0033322D003B3A350043423E00DC
:10495000393A3000404138003E3E370044433F0082
:1049600043413F0037343500302C3000312D3200C8
:10497000363337003A3A35003D3F37004A4B430063
:10498000585A520053554F003B3C370048484600A8
:104990004747480039393B004040420053565600D3
:1049A0005A5E5E0053565600515352005454520002
:1049B0003F3E3B0042413D004C4A45004B494300CD
:1049C0003B3832002E2B2600363530003E3D390074
:1049D0004746410054534E004C4B46004948440062
:1049E00041403B003837320041403B0044433E00E9
:1049F0003E3D380048474200403F3A00403F3A00C1
:104A00004645400045443F0038373200302F2A00E9
:104A10003837320048474200484742003B3A3500A9
:104A2000302F2A002F2E290031302B003635300050
:104A30004D4C47004F4E49004E4D48004D4C4600EE
:104A40003D3D35003030290043433B004D4D45008E
:104A5000393931004040380042423B004141390081
:104A60003E3E360043423C00555450005B5A5700CE
:104A70003F3E3A003D3C3800383733003534300093
:104A80003D3C38004847410041403A0036352F0050
:104A900032312C002E2D290034332F0044433F00A7
:104AA000474642003D3C380042413D0058575300C4
:104AB00044433F003C3B370035333000373430004F
:104AC000403C3900484441004B4744004B474300B9
:104AD0003E3A37004F4B480058545100585451004B
:104AE00056534F0055524D0054514C004E4B46000A
:104AF000403D380044413C004E4B4600524F4A0076
:104B00004C49440045423D0048464100555451003F
:104B10005B5A57004B4A46004746420041403C0022
:104B2000383832003F3F39005A5A530053534D0032
:104B30003D3C36003F3F39003938330034332E00D6
:104B40003635300043423D0055544F004C4B460033
:104B50003D3C370051504B0057554F0056534B00CA
:104B60005A564D005C5951004E4C45003C3B3500B7
:104B70003C3D38004A4B480046474400434442000D
:104B80004C4D4B0050504B00403D37003F3C3900EE
:104B9000524F4F00464245004B464A004E494B009B
:104BA000514D4C0056524F0055524C0055514C003F
:104BB0003F3B37004A46430054504C004D494500A6
:104BC0004D494600595552005A5653005854510009
:104BD000585451004D49460053504B005E5B5600FF
:104BE000615E5900585550004C49440055524D00E3
:104BF0004D4A450045423D004C494400595752003A
:104C00005C5A560052514C00474641004B4A450001
:104C10003938330039383300393833003C3B3600FB
:104C200037363100373631004847420042413C00B8
:104C30002D2C2700302F2A004B4A4500605F5A0078
:104C40005C5B5600504F4A0058575200676661003F
:104C50005758530053544F0050514C00484843009C
:104C60003F3F39003B3A3400403E37005350490043
:104C70004B483F0049463D00514E470046433E00E9
:104C800043403B00484540003E3B360043403B002C
:104C900036332E002D2A2500383530004946410094
:104CA0004E4B460045423D003B3833002F2C270039
:104CB000413E390057544F005B58530056534E0045
:104CC00055524D005C59530063605800615E5400BA
:104CD0005E5C52004E4B420047443C0055524B0034
:104CE0005A5751004C48440043403D00585452002C
:104CF0005F5B590044433E003938330032312C00A9
:104D000032312C0041403B0057565100605F5A0041
:104D1000302F31002D2C2C00312F2F00423E3E0031
:104D200048444300413D3C00444041005A5758002C
:104D300053514F005D5F54004A4C3F0046483B00D2
:104D4000494B400044463E003A3C3700292929009F
:104D50002C2B2F002F2D33003533370040414000DE
:104D6000484B47004E504C005759540062615C005C
:104D70005C5C56004C4B440048453E00403E3500CC
:104D80003B393000413F38004A4944003F3E39003A
:104D900046453F0046453E0047464000504F4900CB
:104DA00051504A004847420042413C0039383400E3
:104DB0002E2D280035342F00484742004A49440030
:104DC00045443F004A4944004F4E49003F3E3900A8
:104DD00044433E0045443F003938330039383300FE
:104DE00042413C0044433E003938330039383300F7
:104DF0003C3B36003B3A3500464440004B4A4400B9
:104E000046453F0042423B00504F480064645C000E
:104E10004C4C440055554E004B4B44003737300046
:104E200033332C0042413B00504F4C005A5957003D
:104E3000656460005E5D580054534D0043423C0081
:104E40003E3E380044433D003E3D37003B3A35008E
:104E5000393833004A4945004A494400383733005D
:104E600033322E003E3D39003F3E3A0037363200A5
:104E70003534300043423E0053514D0059555200E5
:104E80004945420034302D00322F2B00433F3B0078
:104E900045413D004F4C4800524F4B0045423E00BB
:104EA000403D380048454000504D48005B58530095
:104EB0003D3A350035322D004A4742004E4B460000
:104EC000413E39003C3934004B4944004F4E4C00C0
:104ED000464543003534310037363300403F3B0010
:104EE00042413C00403F3A0044433E004A494400AE
:104EF0003C3B35004746400051504A0045443F0086
:104F000041403B00504F4A005655500044433E003C
:104F10003E3D38004847420052514C00514F480036
:104F2000514E460055524B0055534C00504F4900CE
:104F30003B3A360042423E0044454200494A47005F
:104F4000535451005F5D5C005E5A5900413D3B0087
:104F5000413D3B005B58530065615D005D5A560062
:104F60004E4B4800464240004C4746004B474600E7
:104F700044403C003935310035322E003A3632009B
:104F8000423E3A0044403D003F3C38004B4743001E
:104F90003F3B3700403C38003D3A35003E3B360051
:104FA00044413C004C49440056534E006A6762003D
:104FB0005F5C570047443F0054514C005855500027
:104FC000484742003635300034332E00484742000F
:104FD0004B4A450052514C00484742004746410069
:104FE0004C4B46004746410033322D0031302B00F8
:104FF0004F4E490055544F005E5D5800605F5A00A7
:10500000575651004847420041403B00565550001A
:105010003E3F3A004D4E4900575853004C4C470014
:1050200045453F004E4D460051504800444139002F
:105030002F2C23003E3B3200514E47004F4C460080
:105040003C3934002C2925002C2924002F2C270042
:105050003936310048454000504D480057544F0004
:105060004F4C470044413C004D4A450057544F00C7
:105070005F5C5700625F5A00625F5A005C595400DF
:1050800054514C0049464100423F380044413700EA
:105090004C4A3F003D3B300036332A003B3831005C
:1050A0003B383200383530003E3B37003E3A37005F
:1050B0004C494500494843003B3A35003C3B3600EB
:1050C0004E4D48005E5D5800605F5A0059585300CD
:1050D0004A47520045404700413C4000423D3D00A8
:1050E000433E3C00423F3B0047454000565650007F
:1050F0004B4C43004E4F43004043360035372C00A5
:1051000032352B0034372F0032342F002B2B29005F
:10511000383738003E3A3E00373336003D3C3A00DF
:105120004546400046463F004747410053524C0029
:1051300054534C0047463E0039372F003431290084
:1051400037342C00413F39004A4944003D3C360089
:1051500036352E0037372E0038372E003C3C3300D2
:105160004040390042423B0043423D0042413D0045
:1051700043423D003938330042413C00474641003C
:1051800044433E0042413C00464540004645400005
:1051900043423D0045443F003D3C37003D3C370025
:1051A0004A49440055544F00504F4A004F4E490061
:1051B0004D4C47003F3E39003E3D380042413C00E7
:1051C00043423D0043423C004D4C4700605F5A0063
:1051D00052514B004949430040403A003C3B3500A6
:1051E0003D3C370043423E00494846004D4C4B0091
:1051F00051504E004E4D4800474640003F3F37005B
:1052000041413A004A494300474641003C3B360091
:10521000494843004D4C47004D4C46003E3D380048
:105220003838320044443F004D4C470041403B0079
:105230003B3A35004D4C4700565450005A575300E6
:105240004E4B47003B3733003B38330054504B0044
:10525000504D4800413E3900403D3900423F3A0040
:1052600044413C0047443F004B484300524F4A00F2
:1052700043403B003A3732004B48430057544F00FD
:10528000514E490046433E004744400047464500D2
:105290003D3C3A003C3B390035343100403F3C0056
:1052A0004F4E4A004C4B4600403F3A004F4E49009B
:1052B0004D4C470044433D0044433D0042413C00C7
:1052C00044433E004D4C470055544F005655500046
:1052D0004F4E49004E4D48005655500053514B001B
:1052E0004A48420046443F00464540004847420085
:1052F00039383400393935004344400044454100D1
:1053000047464300524F4D00575352004B4744000D
:105310004D4A4500605D56005A574F004D4A4200C5
:1053200044413B0044403E004C474600534F4D0033
:105330005B5753004C48440043403B004945410003
:10534000524E49004F4C4700413E3900423F3A001F
:105350003C383300514D490053504B0047443F0007
:105360003F3C370047443F00595651005F5C5700AF
:10537000605D58004A4742004E4B46004F4D480082
:105380004846410041403B0043423D004F4E4900EA
:1053900051504B0044433E00403F3A004A494400CC
:1053A00059585300565550003F3E3900474641007A
:1053B0005F5E59005B5A550054534E00504F4A00EF
:1053C0004C4B460045443F003F3E390047464100B4
:1053D00037373200484944004E4F4A0044453F00A9
:1053E00046453F0055544E0059574F0048453D0033
:1053F0003A372E00413E35004D4A440049464100AF
:105400003D3A36003A37320043403B00514E4900A6
:1054100055524D0056534E004E4B46004C494400E9
:10542000494641004C4944005A57520058555000D3
:1054300056534E0055524D004F4C47004B484300C9
:10544000423F3A0036332E0034312A003C383000D7
:105450003B382F003A372E003F3C340046423B0099
:105460004B484100504D470053504B0044413C00D5
:105470004C4A44004B4A45004746410052514C00BB
:105480005958530053524D004B4A45004A49440075
:10549000504C5600524B5200524B4D004E47450067
:1054A0004A443F0046433C004142390045483E00E3
:1054B0003A3C3300383A3100363930002E31290079
:1054C0002D30290032352E0031352E0032332E009A
:1054D00047474300514D4B00413C3A00413D3900A4
:1054E0004946400047453E00413E390043403B00AD
:1054F00042403A003B38320033302A0035322C002B
:10550000383530003B3A350042413C003B3A3400EC
:105510002F2E270036362C003B3B300038382E002B
:1055200037372F003D3C360043423D004948440098
:1055300052514C0041403B00403F3A0044433E0042
:1055400042413C003C3B36003E3D3800484742006B
:10555000403F3A003E3D38003A3934003A39340091
:1055600044433E0053524D005655500053524D0097
:105570004F4E49003F3E3900393833003F3E390035
:1055800043423E0041403B0043423E0052514D00E9
:105590004D4C480041403B003B3A350041403C0007
:1055A0004645410043423F00403E3E00413F3F00F0
:1055B0003D3C39003F3E390042423B0044443C0000
:1055C00046453E004746400045443F003A393400D6
:1055D00049484300464640004847410044433C0098
:1055E0003E3E370044443E0054544D004E4E480069
:1055F00042423C004D4C4600514F490052504A0037
:105600004C494300423F380044413B0054514B0059
:10561000514E4800403D37003F3C360045423C007B
:1056200047443E0045423D0045423D00484540005C
:1056300046433E0046433E004C49440053504B0015
:10564000504D480044413D003E3B38004443420039
:1056500046444300504F4D0042413E004645410004
:10566000565551005554500041403B004E4D4800A6
:1056700052514C003F3E39003A39340043423D001C
:105680004B4A45004A4944004A49440055544F009A
:105690004F4E490052514C0053524D004948420070
:1056A0003E3D38003B3A35003D3D39004544400021
:1056B000464541003D3C38004545400043423D00E1
:1056C0003F3D3800413E390045423C004B484100D7
:1056D0004D49440059564F00514E470044413B004C
:1056E00044413A004D494300504D470053504A0051
:1056F0005E5B55005956500055524C0056534D00B4
:1057000058554F0054514A0048453F0048453F0016
:1057100043403900524F4A005B58530056524E00E6
:105720004F4B4600504C470056524E00534F4B00D3
:105730005854500047433F0046433E004B48430007
:10574000504E490052514C004F4E490047464100CF
:10575000464540003C3B360041403B004D4C470035
:1057600058575200565550004847420054534E0077
:1057700062615C005B5A55004D4C470043423D005E
:10578000403F3A0044433E004A4944004A494400ED
:105790003A3A350042433E0042433E0041413C001C
:1057A00047464100504F49004E4D450043403900A7
:1057B00048453C00514E45004E4B4500423F3A00A3
:1057C0003E3B37004845410055524D00615E59004F
:1057D0005F5C57005855500045423D003F3C370044
:1057E000413E39004A47420058555000514E490049
:1057F000423F3A0043403B003F3C3700403D3800C9
:105800003E3B36003A3731003E3B35004B464000C8
:10581000403B340045413A00534F48005C5851002A
:10582000615D550063605800615D5600514E470050
:10583000504E47004A494300504E49005B5A5500BC
:10584000595853004A49440044433E0047464100EA
:105850003F3A3B004C45440058514D005C554F00C9
:1058600057524A0049473E0037382F0033372F0040
:105870002A2E29002C2D2B003234330036383600E6
:105880003A3E39003D423C00393E3600373A30005E
:105890004F5046005E5B52004B463E00453F39008C
:1058A0004B4540004C474200443F3B0037322E00FE
:1058B000312D29002D2926003834320043403E0086
:1058C000403E3C0036353200383732003D3D37002F
:1058D00036362E00424237004E4E430047473D00C9
:1058E0003D3D35003F3E380042413D0047464200C5
:1058F0004F4E490044433E0044433E0044433E0073
:1059000041403B003C3B36003E3D380045443F00B3
:105910003B3A350031302B0032312C0032312C0033
:105920003635300041403B004746410041403B0096
:105930003B3A3500383732003A39340044433E00B0
:105940004948440042413D003736320041403D0065
:1059500042413D0041403C003D3C3900454441004E
:105960004949460041403E00353434003A38380059
:1059700038373300403F39004D4C44005252490003
:10598000494941003C3B35003A3934003A3934004A
:105990003C3B36003C3B34004040380044443C0033
:1059A0003E3E36003C3C34004F4F470055554D00BD
:1059B0004848400044443B0048463E0047443C00C1
:1059C000434038004340390048453D0045423B00D4
:1059D00048453D004C4941004F4C44004A47400077
:1059E00046433D0044413C00413E390045423D00B4
:1059F00046433E00524F4A004C494400423F3A0061
:105A00003C393400393631003633300046444300E7
:105A10005654530065636100575653004D4C49007E
:105A200054534F0055544F0042413D0044433E0003
:105A3000484742003C3B36003C3B36004B4A440062
:105A400052514C00484742003A3934003E3D38003C
:105A50003E3D38004E4D480045443F003737320048
:105A600032322E003839340042433F004C4B47005D
:105A70005B5A56004B4A45004846400047453F00A8
:105A8000424038003A382D0039362A00423F35006E
:105A90003C3832004C494600534F4D004D494500BB
:105AA0004F4D460059574D005654470049463B005C
:105AB0004B48400055524A005E5B540058554D001B
:105AC0004F4C45004C4942004E4B440059564F0044
:105AD0004F4C4500423E39004F4A4600605B57003C
